:020000040800F2
:1000000040070020B5010008F51D0008F91B000895
:10001000F11D0008E90300086D230008000000003E
:100020000000000000000000000000005523000850
:10003000ED030008000000005123000859230008C8
:10004000CF010008CF010008CF010008CF01000850
:10005000CF010008CF010008CF010008CF01000840
:10006000CF010008CF010008CF010008CF01000830
:10007000CF010008CF010008CF010008CF01000820
:10008000CF010008CF010008CF010008CF01000810
:10009000CF010008CF010008CF010008CF01000800
:1000A000CF010008CF010008CF010008CF010008F0
:1000B00061230008CF010008CF010008CF0100082C
:1000C000CF010008CF010008CF010008CF010008D0
:1000D000CF010008CF010008CF010008CF010008C0
:1000E000CF010008CF010008CF01000800F002F89E
:1000F00000F050F814A696E8000CB244B344DA4578
:1001000001D100F047F8BAE80F000FA696E83000DA
:10011000A5EB040504EB0607AAEB0704A7F101070A
:100120004FEA15154FEA3414A4F10104AC4201D38F
:1001300000F030F813F0010F18BFFB1A43F0010371
:1001400000F001F8DBE7184794290000B42900000B
:10015000103A24BF78C878C1FAD8520724BF30C8F3
:1001600030C144BF04680C60704700007047000055
:100170000023002400250026103A28BF78C1FBD8B0
:10018000520728BF30C148BF0B6070471FB51FBD65
:1001900010B510BD00F031F81146FFF7F7FF02F07F
:1001A000E7F800F04FF803B4FFF7F2FF03BC00F0EC
:1001B00057F800000948804709480047FEE7FEE776
:1001C000FEE7FEE7FEE7FEE7FEE7FEE7FEE7FEE707
:1001D00004480549054A064B704700005D230008A6
:1001E000ED000008400100204007002040030020EF
:1001F00040030020704770477047754600F02CF8A8
:10020000AE4605006946534620F00700854618B003
:1002100020B5FFF7DDFFBDE820404FF000064FF0AE
:1002200000074FF000084FF0000BAC46ACE8C009E7
:10023000ACE8C009ACE8C009ACE8C00921F007018E
:100240008D46704710B50446AFF300802046BDE8E8
:100250001040FFF7A8BF00000048704710000020C2
:1002600001491820ABBEFEE72600020070470000DF
:10027000B0B5044600688168C90709D0816821F0DB
:100280000101816000F052FD21688968C90701D130
:100290000020B0BD054602E08068C007F8D000F03D
:1002A00045FD411B20680329F6D38168C907F3D0B7
:1002B000A06A40F01000A062E06A40F00100E06235
:1002C0000120B0BD0146406A826A12F0500F03D08F
:1002D000006A026B084610470168826A42F40072A5
:1002E0008262896801F46021B1F5602F01D1017B40
:1002F00011B100F0CDB900BF816A21F48071816233
:10030000816AC90448BF00F0C3B9816A41F00101A4
:10031000816200F0BDB90000406A816A41F040018D
:100320008162C16A41F00401C16200F0B5B9000008
:10033000406A00F0AFB90000B0B582B004460020BA
:10034000019021688A68D2074BD1886840F001008B
:10035000886040F20800C2F2000000684DF6836138
:10036000C4F21B31A0FB0101880C01900198A0B1DF
:10037000019801380190019878B1019801380190F5
:10038000019850B1019801380190019828B1019865
:100390000138019001980028EAD100F0C7FC2168DB
:1003A0008968C9071CD1054603E000BF8068C00703
:1003B00016D100F0BBFC411B20680329F6D38168ED
:1003C000C907F3D1A06A40F01000A062E06A40F0D3
:1003D0000100E062002084F82400012002B0B0BDDA
:1003E000002002B0B0BD0000FEE700007047000032
:1003F000EFF3108072B600BFFEE7000070B582B068
:1004000004460020019094F82400012802D1022023
:1004100002B070BD012084F824002046FFF728FFB9
:100420002046FFF789FF28B1002184F8241002B08C
:1004300070BD00BF0646A06A41F202118843023037
:10044000A06240F20800C2F200000568022000F03D
:1004500029FDB5FBF0F0400001900198A8B100BF64
:10046000019801380190019878B101980138019004
:10047000019850B1019801380190019828B1019874
:100480000138019001980028EAD12068816841F084
:100490000801816000F04AFC21688A6812070FD4C5
:1004A000886840F00400886000F040FC216889689A
:1004B000490715D401216FF00302304622E000BF46
:1004C000054602E088680007EAD500F02FFC401BD3
:1004D00021680B28F6D388680007F3D50EE000BF2B
:1004E000054602E080684007E4D500F01FFC411B90
:1004F00020680B29F6D381684907F3D50120102124
:100500006FF01202A36A1A401143A162002184F81D
:10051000241002B070BD000010B581B0002200921E
:1005200090F82420012A03D10221084601B010BD11
:100530004B680122062B80F8242033D8D0F800C065
:1005400003EB83035A1F1F23DCF834E003FA02F4A1
:100550000B682EEA040403FA02F22243CCF834209A
:10056000092B03EB430249D9DCF80CE01E3A0724BF
:10057000896894402EEA0404914023F0010221434B
:10058000102ACCF80C1043D142F20841C4F2010108
:10059000A1F10802944543D0816A41F020018162B3
:1005A000012136E0D0F800C00C2B03EB830213D8F6
:1005B000233A1F23DCF830E003FA02F40B682EEA3A
:1005C000040403FA02F22243CCF83020092B03EB97
:1005D0004302C9D812E000BF413A1F23DCF82CE0E7
:1005E00003FA02F40B682EEA040403FA02F222432F
:1005F000CCF82C20092B03EB4302B5D8DCF81030E3
:10060000072489689440A34391401943CCF8101003
:100610000021002280F82420084601B010BD00BF50
:100620000A681202F4D40A68102B42F400020A602D
:10063000EED140F20801C2F2000109684DF6836272
:10064000C4F21B32A1FB0212910C01EB81014900A3
:10065000009100990029DBD000990139009100999F
:100660000029D5D000990139009100990029CFD0F7
:1006700000990139009100990029C9D000990139E8
:100680000091009900294FF00001E5D1C1E7000079
:10069000704700007047000070470000002804BF4A
:1006A00001207047B0B50446806A28B12168886887
:1006B000C0070CD115E000BF0020E06284F82400E0
:1006C000204600F097F821688868C00709D088683C
:1006D00020F00100886000F029FB21688A68D207B9
:1006E00026D1A06AC0063AD4A06A41F20212904311
:1006F0000230A062E069D4E9013240EA030C531EE3
:10070000B3FA83F35D091346B2F5807F18BF2B025D
:10071000207D257B01284CEA45002CD135B3A56A04
:1007200045F02005A562E56A45F00105E56222E095
:10073000054602E08868C007D3D000F0F7FA401BF6
:1007400021680328F6D38868C007F3D0A06A40F078
:100750001000A062E06A40F00100E062A06AA06AB6
:1007600040F01000A0620120B0BD00BFA56903EBFE
:100770004533A3F5C0534D68B2F5807F25F4694534
:1007800043EA05034B608B684FF2FD75CFF6E175C8
:1007900003EA050343EA00038B6001D0012A07D175
:1007A00022690023CFF6F07303EB025201E000BF91
:1007B0000022CB6A23F470031A43CA62896840F6A8
:1007C000FE62CFF61F721140814207D10020E06225
:1007D000A16A012262F30101A162B0BDA06A40F0EA
:1007E000100020F00200A062E06A40F00100E06228
:1007F0000120B0BD70B586B0044640F60000C4F2DA
:100800000100216800F5E052002691420596CDE9ED
:100810000366029602D006B070BD00BF41F2180117
:10082000C4F202010A6842F400720A600A6802F423
:1008300000720192019A0A6842F004020A60096893
:1008400001F00401019101990F210291032103910B
:1008500002A900F05DF940F2B0050820C2F20005DF
:10086000C4F202004FF48072C5E9000605F11000E1
:1008700080214FF480634FF0200C4FF4005E80E83D
:100880000C502846C5E9026100F09CF8002818BF0A
:10089000FFF7AEFD25626C6206B070BDF0B581B0A9
:1008A000036842F60006C4F20106B34205D042F2E4
:1008B0000046C4F20106B3420AD142F20443C4F234
:1008C00001031B6813F4702F02D0012001B0F0BDAA
:1008D00090F82430012B03D1022001B0F0BD00BFFD
:1008E0000D460121174680F824100646FFF724FD27
:1008F00030B1002086F82400012001B0F0BD00BF17
:1009000042F204403168B36AC4F20100324640F654
:100910000176B34300F57F7603F58073B1429362AD
:1009200044D0906A20F4801090624868400504D555
:10093000906A012363F30D309062936A0020DB0418
:100940004FF0000344BFD36A23F00603D36282F85A
:100950002400106A40F2C52340F23136C0F600038D
:10096000C0F6000640F21934C0F60004C0E90A36A9
:100970006FF0020304630B608B68144643F48073CA
:100980008B604C312A463B4600F05EF82068816857
:1009900001F460228168B2F5602F0CBF41F4A00120
:1009A00041F480118160002001B0F0BD036813F4B0
:1009B000702FB6D0936A43F48013936200684005A9
:1009C000B6D4BAE7014600284FF0010008BF7047CF
:1009D0002DE9F043D1F800C04FF6F873CBF6FD7364
:1009E0004CF6CD426344CCF6CC42A3FB02236FF01D
:1009F000030202EA93020023C4F2020301F10C088D
:100A0000C1E90F320222D1E9019E98E8F00181F894
:100A10002120DCF8002043F6F0739A4342EA0902F1
:100A200042EA0E0222432A4332433A4342EA080290
:100A3000CCF8002000228A6381F8210081F8202070
:100A40000020BDE8F043704790F820C0BCF1010FD2
:100A500004BF02207047F0B54FF0010E80F820E08F
:100A600090F821C0BCF1010F26D14FF0020C80F8A4
:100A700021C04FF0000CC0F838C0D0E900C4C56AEE
:100A8000C66BDCF80070102C27F00107CCF8007062
:100A9000006C0EFA00F070600846CCF8043004BF19
:100AA00010460A46CCF80800CCF80C20DCF8000010
:100AB00045B140F00E000DE0002180F8201002202A
:100AC000F0BD00BF20F00400CCF80000DCF800000E
:100AD00040F00A00CCF80000DCF8000040F0010013
:100AE000CCF800000020F0BDB0B5044600F01EF9BF
:100AF000054640F20000C2F200000078611C18BFF9
:100B0000044400BF00F012F9401BA042FAD3B0BD6C
:100B10002DE9F04F82B00E68002E00F0FD8041F20A
:100B20000042C4F20102042340F2004E904208BF8A
:100B300003234FF6FF7CC4F2010E0093002401232F
:100B4000C1F2100C4FF0000A4FF000094BE000BF5B
:100B500041F20002C4F20102009F904208BF022746
:100B600004F00C030F229A402BEA020207FA03F367
:100B70004FEA9A051A4346F825204E6840F20C4584
:100B8000F202DEF8082054BF22EA080242EA080214
:100B9000C4F20105CEF808202A68B30254BF22EA45
:100BA000080242EA08022A60B303DEF8042054BFB8
:100BB00022EA080242EA0802F303CEF80420DEF833
:100BC00000204FF0010354BF22EA080242EA080263
:100BD000CEF800200E680AF1010A36FA0AF204F192
:100BE000040400F0998003FA0AFB16EA0B08F1D01E
:100BF0004E68664512DC122E56D8DFE806F0350B3B
:100C00004D495555555555555555555555555545B8
:100C1000510000BFD1F80C9046E000BF4FF6FF72C4
:100C2000C1F2210296420FDC0022C1F2110296426B
:100C30001AD00022C1F21202964215D00022C1F24F
:100C40002102964210D02FE00022C1F222029642E9
:100C50000AD00022C1F23102964205D00022C1F230
:100C60003202964220D100BF8A684AB1012A14BFDD
:100C7000C0F814B0C0F810B04FF0080914E000BF7D
:100C80004FF0040910E000BFCA6802F104090BE04C
:100C90004FF0000908E000BFCA6802F1080903E04C
:100CA000CA6802F10C0900BF02462646B8F5807FEB
:100CB00024BF0432203E17680F25B54027EA0505FA
:100CC00009FA06F635431560CA79D2067FF582AF78
:100CD00041F21803C4F202031A68AEF57E7642F0C0
:100CE00001021A601A6802F001020192019A2AF0C8
:100CF000030256F802B040F60002C4F2010290422C
:100D000008D040F60042C4F2010290427FF420AFC6
:100D1000012725E7002723E702B0BDE8F08F000098
:100D2000002A08BF090401617047000040F23C102E
:100D3000C2F200000068704740F2000040F23C112F
:100D4000C2F20000C2F2000100780A681044086094
:100D50007047000080B542F20000C4F20200016852
:100D600041F010010160032000F08CF80F2000F02A
:100D700005F800F027F8002080BD000070B540F2B3
:100D80000006C2F2000640F208013278C2F2000109
:100D90004FF47A730968B3FBF2F20446B1FBF2F147
:100DA000084600F06FFC0F2C4FF0010508D838B949
:100DB0004FF0FF3021460022002500F037F8746024
:100DC000284670BD82B041F21800C4F202000168EA
:100DD000022241F001010160016801F0010101916D
:100DE0000199416841F080514160406800F08050B5
:100DF000009000980420C4F20100016862F31A61B7
:100E0000016002B070470000002848BF704700F042
:100E10001F01012202FA01F11C2202EAD0004EF267
:100E20000012CEF2000281507047000010B54EF65D
:100E30000C5CCEF2000CDCF80030C3F3022E8EF016
:100E40000704042C28BF0424BEF103034FF0FF3E27
:100E50000EFA04F438BF0023A14399400EFA03F3BD
:100E60009A43114300F00F0200F160430901043A74
:100E700003F564436244002848BF02F10C03197073
:100E800010BD00004EF60C51CEF200010A684FF67C
:100E9000FF031A4060F30A2242F0806040F0FD70C8
:100EA00008607047012821D002280DD0102808D1F1
:100EB00041F20401C4F202010A6851F8040CC001B5
:100EC00034D40020704700BF80B500F0C7F941F26C
:100ED0000401C4F2020109680222C1F3813102EB6C
:100EE0004101B0FBF1F0BDE88040704741F20400E1
:100EF000C4F20200C16940F202320A40B2F5817FB9
:100F000004BF4FF40040704701F44071B1F5407FD9
:100F100018D0B1F5007F1CBF00207047006A49F669
:100F20004041800701EAE070704700BFC2F3834090
:100F300015A3185CD2030DD440F60012C0F23D0296
:100F4000504313E050F8040C4FF22441800301EAAF
:100F5000E07070470A6810A3C2F340429A5C41F205
:100F60000023C0F27A03B3FBF2F25043096849024E
:100F700048BF70474AF6AB214000CAF6AA21A0FB41
:100F800001014808704700BF02030405060708096D
:100F90000A0B0C0D0E0F1010010200002DE9F0419C
:100FA00082B00446007841F21C06C007C4F2020673
:100FB0004AD030685FEAC00808D4306840F08050FA
:100FC0003060306800F080500190019847F20007CF
:100FD000C4F200073868C00512D4386840F4807045
:100FE0003860FFF7A3FE05463868C00508D4FFF750
:100FF0009DFE401B6428F7D9032002B0BDE8F081B4
:10100000706810F4407012D0616801F44071884239
:101010000DD0706840F24042C4F24222012320F415
:10102000407113600023C0071360716026D170689F
:10103000616820F440700843B8F1000F706003D479
:10104000306820F0805030602068810707D556F85E
:10105000181CA26821F44041114346F8181CC00630
:1010600007D556F8180CE16820F48000084346F8CC
:10107000180C002002B0BDE8F08100BFFFF756FE5B
:10108000054641F2883700BF70688007CFD4FFF76C
:101090004DFE401BB8424FF00300F5D9EAE70000CF
:1010A000002804BF012070472DE9F04381B042F2CF
:1010B0000008C4F202080446D8F800000D4600F00B
:1010C000070088420CD2D8F8000020F0070028431F
:1010D000C8F80000D8F8000000F00700A8426CD162
:1010E000206841F204098107C4F2020917D54107BB
:1010F00005D5D9F8001041F4E061C9F800100107E6
:1011000005D5D9F8001041F46051C9F80010D9F89C
:101110000010A26821F0F0011143C9F80010C007C7
:1011200042D1D8F8000000F00700A8420CD9D8F846
:10113000000020F007002843C8F80000D8F800009D
:1011400000F00700A84238D12068410707D5D9F838
:101150000010E26821F4E0611143C9F800100007B3
:1011600008D5D9F80000216920F4605040EAC10098
:10117000C9F80000D9F8002002F00C00082841F25C
:101180000020C0F27A004DD142F6CA23C2F3834157
:10119000C0F60003595CD20338D440F60010C0F208
:1011A0003D0048433EE000BF606859F8041C022837
:1011B00008D0012826D1890306D4012001B0BDE85A
:1011C000F08300BF8901F8D5D9F8001021F00301A0
:1011D0000843C9F80000FFF7A9FD064641F2883729
:1011E000D9F80000616800F00C00B0EB810F98D0D6
:1011F000FFF79CFD801BB842F2D9032001B0BDE887
:10120000F08300BF8907D8D5DEE700BFD9F80020FA
:1012100042F2D843C2F34042C0F600039A5C48430E
:10122000B0FBF2F0D9F8001042F2C042C1F3031152
:10123000C0F60002515C40F2080220FA01F140F2CF
:101240000400C2F200000068C2F200021160FFF761
:1012500095FD002001B0BDE8F083000040F20800D9
:1012600041F20401C2F20000C4F202010068096800
:1012700042F2D042C1F3C221C0F60002515CC84024
:1012800070470000002804BF012070472DE9F0419D
:1012900082B00446007841F20006C007C4F202069C
:1012A0000CD0706800F00C00042840F08180306899
:1012B000800303D56068002800F04681207880070D
:1012C0001BD5706810F00C0F09D0706800F00C008E
:1012D000082840F087807068C00300F18380306880
:1012E000800703D52069012840F02E8130686169AC
:1012F00020F0F80040EAC10030602078000713D4E5
:10130000207840072CD4E569002D00F01881706822
:1013100000F00C00082840F0A780012D40F0048167
:10132000012002B0BDE8F081A069002800F08480AF
:101330000020C4F242200121C0F88014FFF7F6FC1F
:10134000054600BF706A800700F1B280FFF7EEFC2F
:10135000401B0228F6D9032002B0BDE8F08100BF8F
:10136000F0695FEAC00808D4F06940F08050F0618D
:10137000F06900F080500090009847F20007C4F236
:1013800000073868C00549D4386840F48070386078
:10139000FFF7CCFC054600BF3868C0053ED4FFF718
:1013A000C5FC401B6428F7D9032002B0BDE8F081DA
:1013B000706800F00C00082803D17068C0033FF586
:1013C00076AF61683068002900F00C81B1F5A02F7C
:1013D00000F00081B1F5803F40F01A8140F4803088
:1013E0001CE100BF2069002840F20000C4F2422046
:1013F00000F0888001210160FFF798FC054600BFDE
:10140000306880073FF572AFFFF790FC401B022861
:10141000F6D9032002B0BDE8F08100BFE168306A70
:10142000002900F09D80052900F09280012940F0FC
:10143000AF8040F00100B1E00020C4F24220002162
:10144000C0F88014FFF772FC054600BF706A800781
:101450007FF556AFFFF76AFC401B0228F6D9032040
:1014600002B0BDE8F08100BF0027C4F2422700208F
:101470003866FFF75BFC022D05460DD13068800110
:1014800040F1DE80FFF752FC401B02284FF00300C2
:10149000F4D902B0BDE8F081306880014FD5FFF784
:1014A00045FC401B02284FF00300F5D9F1E700BFCF
:1014B00040F20800C2F20000006844F6D351C1F2C5
:1014C0006201A0FB0101480A019000BF00BF019822
:1014D000411E002801913FF413AF00BF0198411E47
:1014E000002801913FF40CAF00BF0198411E002875
:1014F00001913FF405AF00BF0198411E0028019102
:10150000E4D1FDE600210160FFF710FC054600BFB5
:10151000306880077FF5F1AEFFF708FC401B02281A
:101520004FF00300F4D9B4E77068216A00F4803208
:101530008A4209D1616A00F47010884204D1002007
:1015400002B0BDE8F08100BF012002B0BDE8F0812B
:1015500040F004003062306A40F001001EE000BF3D
:1015600020F001003062306A20F004003062FFF7A2
:10157000DDFB054641F28837306A800720D5FFF74A
:10158000D5FB401BB8424FF00300F5D981E700BFFF
:1015900020F001003062306A20F004003062FFF772
:1015A000C5FB054641F28837306A800708D4FFF74B
:1015B000BDFB401BB842F7D9032002B0BDE8F08163
:1015C000B8F1000F3FF59FAEF06920F08050F06158
:1015D00099E600BF40F480203060306840F48030ED
:1015E0001CE000BF20F480303060306820F48020A0
:1015F0003060FFF79BFB0546306880037FF55EAEE9
:10160000FFF794FB401B64284FF00300F4D940E738
:1016100020F480303060306820F480203060FFF7A4
:1016200085FB0546306880033FF548AEFFF77EFB3B
:10163000401B6428F6D9032002B0BDE8F08100BF4A
:10164000206AB0F5803F05D17168A26821F40031AD
:10165000114371607168626A21F474111143084387
:10166000706001203866FFF761FB04463068800136
:101670003FF565AFFFF75AFB001B02284FF0030050
:10168000F4D906E7411E0020B0EB116F1CBF01200A
:1016900070474EF21002CEF2000251604EF6235116
:1016A000CEF20001F0230B700721906011607047AB
:1016B000704700007047000090F83C20012A4FF06E
:1016C000020236D010B580F83D200268D2F804E05E
:1016D000D2F808C00C682EF07003234340F2FF7468
:1016E000C4F20004A24253600ADCB2F1804F13D06E
:1016F00040F20043C4F200039A420DD011E000BF53
:1017000042F60043C4F201039A4205D040F60003BA
:10171000C4F200039A4204D149682CF080031943B3
:1017200091600121002280F83D1080F83C20BDE846
:101730001040104670470000002804BF0120704789
:1017400010B590F83D1031B9002180F83C100446E6
:1017500000F068F82046022180F83D10016840F250
:10176000FF740B68C4F2000442F6004CA142C4F2BC
:10177000010C15DCB1F1804F1AD040F20042C4F2E6
:101780000002914214D0A14218DCB1F1804F1DD06B
:1017900040F20042C4F20002914217D01AE000BFAA
:1017A000614505D040F60002C4F200029142EAD140
:1017B000826823F070031343A142E6DD614505D042
:1017C00040F60002C4F20002914203D1026923F400
:1017D00040731343846923F08002D0F804E0C368A7
:1017E000224361450A60CB62C1F828E002D1426918
:1017F000CCF8302001224A6180F8462080F83E2053
:1018000080F83F2080F8402080F8412080F8422076
:1018100080F8432080F8442080F8452080F83D205F
:10182000002010BD0068B0F1804F18BF704780B530
:1018300082B041F21C00C4F202000168002241F0B3
:10184000010101600068002100F001000190019891
:101850001C20FFF7EBFA1C2002B0BDE88040FFF728
:10186000D3BA000090F83D1001291CBF0120704739
:10187000022180F83D10006840F2FF72C168C4F296
:101880000002904241F00101C16009DCB0F1804FDB
:1018900012D040F20041C4F2000188420CD012E0A4
:1018A00042F60041C4F20101884205D040F6000131
:1018B000C4F20001884206D1816801F007010629BF
:1018C00004BF00207047016841F001010160002061
:1018D0007047000090F83C20012A4FF002026CD0C3
:1018E00080B580F83D20D0F800C04FF67772DCF864
:1018F000083023EA0202CCF808200B684F2B29DCC1
:101900001F2B45DD202B46D0302B44D0402B40F000
:10191000AF80D1F804E0C968DCF82030DCF8202082
:1019200022F00102CCF82020DCF8182022F0F0028E
:1019300042EA011123F00A0242EA0E02CCF8181022
:10194000CCF82020DCF8081041F0470121F03001EC
:1019500028E000BF6F2B33DDB3F5005F74D0B3F523
:10196000805F21D0702B40F08380D1E901E3C9680A
:10197000DCF8082043EA0E0322F47F4243EA012107
:101980001143CCF80810DCF8081041F0770109E0A9
:101990000BB1102B6CD1DCF8081021F07001194349
:1019A00041F00701CCF808100022012180F83D1019
:1019B000002180F83C10BDE880401046704700BF11
:1019C000502B21D0602B53D1D1F804E0C968DCF84A
:1019D0002030DCF8202022F01002CCF82020DCF8A7
:1019E000182022F4704242EA013123F0A00242EAB8
:1019F0000E12CCF81810CCF82020DCF8081041F0BA
:101A0000670121F01001CDE7D1F804E0C968DCF8E6
:101A10002030DCF8202022F00102CCF82020DCF875
:101A2000182022F0F00242EA011123F00A0242EAF1
:101A30000E02CCF81810CCF82020DCF8081041F089
:101A4000570121F02001ADE7D1E901E3C968DCF8D5
:101A5000082043EA0E0322F47F4243EA01211143A6
:101A6000CCF80810DCF8081041F480419AE700BF78
:101A700001229AE77047000010B501680446086922
:101A8000800744BFC8685FEA807039D4086940079E
:101A900044BFC8685FEA40703ED40869000744BF8D
:101AA000C8685FEA007045D40869C00644BFC868CA
:101AB0005FEAC0604AD40869C0071CBFC8685FEA13
:101AC000C07051D10869000644BFC8685FEA006071
:101AD00052D40869400644BFC8685FEA406053D4E6
:101AE0000869800646BFC8685FEA806010BD6FF075
:101AF000200220460A61BDE81040FFF7DBBD00BFB1
:101B00006FF002000861012020778869800743D0C8
:101B10002046FFF7AFFF45E06FF0040008610220A8
:101B20002077886910F4407F40D02046FFF7A2FF5D
:101B300042E000BF6FF00800086104202077C86908
:101B400080073DD02046FFF795FF3FE06FF0100083
:101B5000086108202077C86910F4407F3AD02046F9
:101B6000FFF788FF3CE000BF6FF0010008612046EE
:101B700000F03EF82168A5E76FF08000086120467C
:101B8000FFF796FD2168A4E76FF04000086120464A
:101B900000F030F82168A3E7204600F025F8204641
:101BA00000F024F82168002020776FE7204600F03D
:101BB0001BF8204600F01AF82168002020776CE717
:101BC000204600F011F8204600F010F821680020AF
:101BD000207769E7204600F007F8204600F006F875
:101BE00021680020207766E77047000070470000FA
:101BF0007047000070470000FEE70000B0B584B0F9
:101C000040F2800042F20041C2F20000C4F2010141
:101C100000254FF4807201244FF46023C0E90015C1
:101C2000042104730575C36182600161FEF736FD0E
:101C3000002818BFFEF7DCFB40F28000C2F2000073
:101C400001A9CDE901540395FEF766FC002818BFF1
:101C5000FEF7CEFB0120019040F280000224C2F288
:101C6000000001A90294FEF757FC002818BFFEF7F8
:101C7000BFFB40F2800001940324C2F2000001A9DE
:101C80000294FEF749FC002818BFFEF7B1FB0420C0
:101C9000029040F28000C2F2000001A90194FEF718
:101CA0003BFC002818BFFEF7A3FB04B0B0BD00004A
:101CB00081B041F21400C4F20200016841F0010158
:101CC0000160006800F001000090009801B07047CA
:101CD000F0B585B0002641F21800CDE90366CDE9E4
:101CE0000166C4F20200016840F6004441F01001B0
:101CF00001600168C4F2010401F010010091009933
:101D00000168002241F02001016001684FF4407732
:101D100001F0200100910099016841F00401016087
:101D2000016801F0040100910099016841F0080187
:101D3000016000684FF4407100F0080000900098C6
:101D40002046FEF7EDFF4FF4804001900020C1F2E5
:101D5000210001ADCDE9020620462946FEF7D8FE56
:101D60001120CDE902060220049020462946019761
:101D7000FEF7CEFE05B0F0BD80B586B040F2F400AF
:101D8000C2F200004FF0804240F2CF230021C0E9B0
:101D9000002300F108020591CDE90311CDE90011FE
:101DA0004FF0630C4FF4807E82E802508161FFF7B0
:101DB000C3FC002818BFFEF71BFB4FF480500290B5
:101DC00040F2F400C2F2000002A9FFF783FD0028F0
:101DD00018BFFEF70DFB40F2F400C2F200006946A6
:101DE000FFF76AFC002818BFFEF702FB06B080BDB3
:101DF000FEE70000FEE7000070B540F60044002555
:101E0000C4F2010445F0B000C0B200F029FA10207D
:101E100000F026FA0020002600F022FA20464FF4B7
:101E200000710122FEF77CFF20464FF480710122F1
:101E3000FEF776FF20464FF400710022FEF770FF98
:101E400020464FF480710022FEF76AFF782000F0F0
:101E500023F8402000F020F8002000F01DF8204674
:101E60004FF400710022FEF75BFF20464FF48071B3
:101E70000122FEF755FF20464FF400710122FEF7C4
:101E80004FFF701C46B2B6F1FF3FC7DCE8B2013528
:101E9000072828BF70BDB5E7B0B540F60044C4F2CE
:101EA00001040546C20920464FF40071FEF738FFD1
:101EB00020464FF480710122FEF732FF20464FF496
:101EC00080710022FEF72CFFC5F3801220464FF4EC
:101ED0000071FEF725FF20464FF480710122FEF7C6
:101EE0001FFF20464FF480710022FEF719FFC5F353
:101EF000401220464FF40071FEF712FF20464FF4C7
:101F000080710122FEF70CFF20464FF48071002201
:101F1000FEF706FFC5F3001220464FF40071FEF7EE
:101F2000FFFE20464FF480710122FEF7F9FE2046A5
:101F30004FF480710022FEF7F3FEC5F3C002204685
:101F40004FF40071FEF7ECFE20464FF48071012241
:101F5000FEF7E6FE20464FF480710022FEF7E0FE19
:101F6000C5F3800220464FF40071FEF7D9FE2046EB
:101F70004FF480710122FEF7D3FE20464FF48071AA
:101F80000022FEF7CDFEC5F3400220464FF400715B
:101F9000FEF7C6FE20464FF480710122FEF7C0FE18
:101FA00020464FF480710022FEF7BAFE05F00102D0
:101FB00020464FF40071FEF7B3FE20464FF48071C7
:101FC0000122FEF7ADFE20464FF480710022FEF79D
:101FD000A7FE20464FF480710122FEF7A1FE2046A5
:101FE0004FF480710022BDE8B040FEF799BE0000BA
:101FF00010B540F60044C4F2010420464FF480714D
:102000000122FEF78DFE20464FF400710122FEF7FB
:1020100087FEAE2000F024F9D52000F021F98020C1
:1020200000F01EF9A82000F01BF93F2000F018F97D
:10203000D32000F015F9002000F012F9402000F044
:102040000FF9A12000F00CF9C82000F009F9DA20FE
:1020500000F006F9122000F003F9812000F000F9E9
:10206000CF2000F0FDF8D92000F0FAF8F12000F0C0
:10207000F7F8DB2000F0F4F8302000F0F1F8A420AD
:1020800000F0EEF8A62000F0EBF88D2000F0E8F864
:10209000142000F0E5F8AF2000F0E2F8BDE81040B1
:1020A000FFF7AABE2DE9F04780467E2000EB4800EE
:1020B00017466FF0070240F0B00002EBC104C0B257
:1020C000E5B200F0CDF8280900F11009484600F00B
:1020D000C7F804F0080A504600F0C2F842F2DA40AD
:1020E000C0F6000000EB07114FF60060CFF6FF705E
:1020F000085CA1F5007600F0EFF87078B778F47816
:10210000357900F0E9F8384600F0E6F8204600F0AE
:10211000E3F8284600F0E0F8707900F0DDF8B079D7
:1021200000F0DAF8F07900F0D7F84FF0FF3000EB6C
:10213000480040F0B000C0B200F092F8484600F00D
:102140008FF8504600F08CF8307A00F0C5F8707ABD
:1021500000F0C2F8B07A00F0BFF8F07A00F0BCF8F6
:10216000307B00F0B9F8707B00F0B6F8B07B00F07F
:10217000B3F8F07BBDE8F04700F0AEB8002B08BF25
:1021800070472DE9F04F81B0A3F1010B1C46914639
:102190008A460746981E002642F210785D46009057
:1021A0001CE000BF0120B9FBF0F04CF6CD41CCF6AD
:1021B000CC41A0FB0112D20802EB8202A0EB42004C
:1021C00006EB0A0140F03000C2B2C9B23846FFF750
:1021D00069FF0136A642A5F1010527D05E45E1D091
:1021E0000098801B032801D2012007E025F003019D
:1021F000012000BF043900FB08F0FBD1F14321446A
:1022000011F00301CFD0012904D100EB8000400080
:10221000C9E700BF4FF47A72424302294FF06401CC
:1022200008BF00FB01F21046BDE700BF01B0BDE8EA
:10223000F04F7047F0B581B0144612786AB10D4680
:10224000064600277819C1B2D2B23046FFF72AFFFE
:102250000137F8B2225C002AF4D101B0F0BD0000D1
:10226000B0B540F60044C4F20104054620464FF4E0
:1022700000710122FEF754FD20464FF480710122C7
:10228000FEF74EFD20464FF400710022FEF748FD98
:1022900020464FF480710022FEF742FD7820FFF7C0
:1022A000FBFD0020FFF7F8FD2846FFF7F5FD20466F
:1022B0004FF400710022FEF733FD20464FF4807189
:1022C0000122FEF72DFD20464FF400710122BDE8EA
:1022D000B040FEF725BD0000B0B540F60044C4F2A2
:1022E0000104054620464FF400710122FEF718FD57
:1022F00020464FF480710122FEF712FD20464FF474
:1023000000710022FEF70CFD20464FF48071002280
:10231000FEF706FD7820FFF7BFFD4020FFF7BCFD6C
:102320002846FFF7B9FD20464FF400710022FEF762
:10233000F7FC20464FF480710122FEF7F1FC2046A5
:102340004FF400710122BDE8B040FEF7E9BC000087
:102350007047000070470000FEF7EEBC70470000B9
:1023600040F2F400C2F20000FFF786BBFEE7000077
:1023700094B0FEF7EFFC00240120CDE90F44CDE935
:102380000D440A900E904FF4E0104FF48031022576
:1023900013900AA80494CDE90244CDE90B14CDE9C9
:1023A0001151FEF76FFF28B1EFF3108072B600BF36
:1023B000FEE700BF0F20CDE905054FF48060CDE9B1
:1023C000080405A802210794FEF76AFE20B1EFF386
:1023D000108072B6FEE700BF022001904FF400406B
:1023E000039001A8FEF7DAFD20B1EFF3108072B67A
:1023F000FEE700BFFFF76CFCFFF75AFCFFF7FEFBA0
:10240000FFF7BAFCFFF7F4FD6420FEF76DFB40F226
:102410008004C2F200042046FDF7F0FF40F2700590
:10242000C2F2000505F1080120460422FEF736FA43
:102430001BA201200121FFF7FDFE1BA202200121AA
:10244000FFF7F8FE1AA203200121FFF7F3FE1AA2FC
:1024500004200121FFF7EEFE40F2F400C2F200007A
:10246000FFF700FA6889E9682A89688069600120B5
:10247000052104232A80FFF781FE6A8802200521B6
:102480000423FFF77BFEAA88032005210423FFF71E
:1024900075FEEA88042005210423FFF76FFEE1E7BB
:1024A0004144313A000000004144323A000000004B
:1024B0004144333A000000004144343A0000000037
:1024C00000000000000000000102030406070809E4
:1024D00000000000010203040102000000000000EF
:1024E00000000000000000000000000000F80000F4
:1024F0000000000000333000000000100C06100C3B
:102500000600000000000000000040C07840C078D5
:102510004000043F04043F040400007088FC0830BD
:102520000000001820FF211E0000F008F000E01855
:10253000000000211C031E211E0000F0088870000E
:1025400000001E2123241927211010160E00000060
:1025500000000000000000000000000000E018047F
:102560000200000000071820400000020418E000EC
:1025700000000040201807000000404080F080402C
:1025800040000202010F01020200000000F0000002
:1025900000000101011F0101010000000000000016
:1025A000000080B07000000000000000000000008B
:1025B0000000000101010101010100000000000014
:1025C00000000030300000000000000000008060CB
:1025D0001804006018060100000000E01008081050
:1025E000E000000F102020100F00001010F8000075
:1025F00000000020203F202000000070080808880C
:1026000070000030282422213000003008888848DB
:1026100030000018202020110E000000C02010F80B
:10262000000000070424243F240000F808888808DC
:1026300008000019212020110E0000E010888818E1
:102640000000000F112020110E0000380808C838C3
:1026500008000000003F00000000007088080888A3
:102660007000001C222121221C0000E0100808102C
:10267000E0000000312222110F00000000C0C00065
:10268000000000000030300000000000008000006A
:10269000000000008060000000000000804020106A
:1026A0000800000102040810200040404040404063
:1026B00040000404040404040400000810204080C6
:1026C00000000020100804020100007048080808FB
:1026D000F0000000003036010000C030C828E810CB
:1026E000E0000718272423140B000000C038E00086
:1026F0000000203C23020227382008F888888870D0
:102700000000203F202020110E00C03008080808DB
:102710003800071820202010080008F808080810C2
:10272000E000203F202020100F0008F88888E808EB
:102730001000203F20202320180008F88888E8088F
:102740001000203F200003000000C03008080838B7
:10275000000007182020221E020008F808000008C8
:10276000F808203F210101213F20000808F808084F
:1027700000000020203F2020000000000808F8088A
:102780000800C08080807F00000008F888C02818FA
:102790000800203F20012638200008F8080000002B
:1027A0000000203F20202020300008F8F800F8F832
:1027B0000800203F003F003F200008F830C000081C
:1027C000F808203F200007183F00E0100808081014
:1027D000E0000F10202020100F0008F8080808085B
:1027E000F000203F210101010000E010080808105E
:1027F000E0000F18242438504F0008F88888888893
:102800007000203F2000030C30200070880808086A
:1028100038000038202121221C00180808F8080878
:1028200018000000203F2000000008F80800000801
:10283000F808001F202020201F000878880000C80A
:102840003808000007380E010000F80800F80008FA
:10285000F800033C0700073C030008186880806804
:10286000180820302C03032C30200838C800C83842
:1028700008000000203F2000000010080808C838A9
:1028800008002038262120201800000000FE020247
:1028900002000000007F40404000000C30C00000FB
:1028A0000000000000010638C00000020202FE0025
:1028B0000000004040407F000000000004020202CF
:1028C0000400000000000000000000000000000004
:1028D00000008080808080808080000202040000F0
:1028E00000000000000000000000000080808080E8
:1028F00000000019242222223F2008F800808000D6
:102900000000003F112020110E0000000080808098
:102910000000000E1120202011000000008080889F
:10292000F800000E112020103F20000080808080E1
:102930000000001F222222221300008080F08888DD
:1029400088180020203F2020000000008080808028
:102950008000006B94949493600008F8008080805D
:102960000000203F210000203F20008098980000B8
:1029700000000020203F20200000000000809898E8
:10298000000000C08080807F000008F80000808088
:102990008000203F24022D302000000808F80000AD
:1029A00000000020203F2020000080808080808068
:1029B0008000203F20003F20003F808000808080FA
:1029C0000000203F210000203F2000008080808008
:1029D0000000001F202020201F0080800080800039
:1029E000000080FFA12020110E00000000808080E8
:1029F0008000000E112020A0FF8080808000808059
:102A0000800020203F212000010000008080808085
:102A100080000033242424241900008080E080807A
:102A200000000000001F20200000808000000080C7
:102A30008000001F202020103F2080808000008028
:102A4000808000010E300806010080800080008038
:102A500080800F300C030C300F00008080008080DD
:102A600080000020312E0E31200080808000008008
:102A7000808080818E7018060100008080808080B8
:102A800080000021302C2221300000000000807CDA
:102A9000020200000000003F404000000000FF0074
:102AA000000000000000FF0000000002027C800027
:102AB00000000040403F000000000006010102024B
:102AC00004040000000000000000020304050607E3
:102AD00008090A0B0C0D0E0F10100000002B000847
:102AE000000000201000000050010008102B00081A
:102AF00010000020300700007001000800000000F6
:102B000001000000100000000024F400000000009C
:04000005080000ED02
:00000001FF
