:020000040800F2
:1000000078060020B5010008290D0008690C0008D9
:10001000250D00087102000895120008000000007C
:10002000000000000000000000000000891200082D
:100030008102000800000000851200088D120008EF
:10004000CF010008CF010008CF010008CF01000850
:10005000CF010008CF010008CF010008CF01000840
:10006000CF010008CF010008CF010008CF01000830
:10007000CF010008CF010008CF010008CF01000820
:10008000CF010008CF010008CF010008CF01000810
:10009000CF010008CF010008CF010008CF01000800
:1000A000CF010008CF010008CF010008CF010008F0
:1000B000CF010008CF010008CF010008CF010008E0
:1000C000CF010008CF010008CF010008CF010008D0
:1000D000CF010008CF010008CF010008CF010008C0
:1000E00085020008CF010008CF01000800F002F8E7
:1000F00000F050F814A696E8000CB244B344DA4578
:1001000001D100F047F8BAE80F000FA696E83000DA
:10011000A5EB040504EB0607AAEB0704A7F101070A
:100120004FEA15154FEA3414A4F10104AC4201D38F
:1001300000F030F813F0010F18BFFB1A43F0010371
:1001400000F001F8DBE71847F4170000141800006E
:10015000103A24BF78C878C1FAD8520724BF30C8F3
:1001600030C144BF04680C60704700007047000055
:100170000023002400250026103A28BF78C1FBD8B0
:10018000520728BF30C148BF0B6070471FB51FBD65
:1001900010B510BD00F031F81146FFF7F7FF01F080
:1001A0007BF800F04FF803B4FFF7F2FF03BC00F058
:1001B00057F800000948804709480047FEE7FEE776
:1001C000FEE7FEE7FEE7FEE7FEE7FEE7FEE7FEE707
:1001D00004480549054A064B704700009112000883
:1001E000ED0000087800002078060020780200204A
:1001F00078020020704770477047754600F02CF871
:10020000AE4605006946534620F00700854618B003
:1002100020B5FFF7DDFFBDE820404FF000064FF0AE
:1002200000074FF000084FF0000BAC46ACE8C009E7
:10023000ACE8C009ACE8C009ACE8C00921F007018E
:100240008D46704710B50446AFF300802046BDE8E8
:100250001040FFF7A8BF00000048704710000020C2
:1002600001491820ABBEFEE72600020070470000DF
:10027000FEE7000040F27000C2F200000088704704
:100280007047000080B540F21440C4F201000068DD
:10029000400415D540F60040C4F201004FF48041FF
:1002A00000F026F9002818BF80BD4FF4804000F010
:1002B0000BF840F27000C2F20000018801310180A9
:1002C00080BD00007047000040F21441C4F20101FB
:1002D0000A68024214BF08607047FFF7F3BF0000CE
:1002E0002DE9F04F82B00E68002E00F0FD8041F243
:1002F0000042C4F20102042340F2004E904208BFC3
:1003000003234FF6FF7CC4F2010E00930024012367
:10031000C1F2100C4FF0000A4FF000094BE000BF93
:1003200041F20002C4F20102009F904208BF02277E
:1003300004F00C030F229A402BEA020207FA03F39F
:100340004FEA9A051A4346F825204E6840F20C45BC
:10035000F202DEF8082054BF22EA080242EA08024C
:10036000C4F20105CEF808202A68B30254BF22EA7D
:10037000080242EA08022A60B303DEF8042054BFF0
:1003800022EA080242EA0802F303CEF80420DEF86B
:1003900000204FF0010354BF22EA080242EA08029B
:1003A000CEF800200E680AF1010A36FA0AF204F1CA
:1003B000040400F0998003FA0AFB16EA0B08F1D056
:1003C0004E68664512DC122E56D8DFE806F0350B73
:1003D0004D495555555555555555555555555545F1
:1003E000510000BFD1F80C9046E000BF4FF6FF72FD
:1003F000C1F2210296420FDC0022C1F211029642A4
:100400001AD00022C1F21202964215D00022C1F287
:100410002102964210D02FE00022C1F22202964221
:100420000AD00022C1F23102964205D00022C1F268
:100430003202964220D100BF8A684AB1012A14BF15
:10044000C0F814B0C0F810B04FF0080914E000BFB5
:100450004FF0040910E000BFCA6802F104090BE084
:100460004FF0000908E000BFCA6802F1080903E084
:10047000CA6802F10C0900BF02462646B8F5807F23
:1004800024BF0432203E17680F25B54027EA050532
:1004900009FA06F635431560CA79D2067FF582AFB0
:1004A00041F21803C4F202031A68AEF57E7642F0F8
:1004B00001021A601A6802F001020192019A2AF000
:1004C000030256F802B040F60002C4F20102904264
:1004D00008D040F60042C4F2010290427FF420AFFF
:1004E000012725E7002723E702B0BDE8F08F0000D1
:1004F0008068084018BF012070470000002A08BF2C
:10050000090401617047000040F27400C2F200006B
:100510000068704740F2000040F27401C2F200002F
:10052000C2F2000100780A681044086070470000B9
:1005300080B542F20000C4F20200016841F01001EF
:100540000160032000F08CF80F2000F005F800F0A7
:1005500027F8002080BD000070B540F20006C2F20E
:10056000000640F208013278C2F200014FF47A73BB
:100570000968B3FBF2F20446B1FBF2F1084600F061
:100580005DFB0F2C4FF0010508D838B94FF0FF3054
:1005900021460022002500F037F87460284670BD1F
:1005A00082B041F21800C4F202000168022241F058
:1005B00001010160016801F00101019101994168A7
:1005C00041F080514160406800F0805000900098F8
:1005D0000420C4F20100016862F31A61016002B0F4
:1005E00070470000002848BF704700F01F0101223B
:1005F00002FA01F11C2202EAD0004EF20012CEF201
:10060000000281507047000010B54EF60C5CCEF22F
:10061000000CDCF80030C3F3022E8EF00704042C2B
:1006200028BF0424BEF103034FF0FF3E0EFA04F48A
:1006300038BF0023A14399400EFA03F39A431143B4
:1006400000F00F0200F160430901043A03F564432E
:100650006244002848BF02F10C03197010BD00006D
:100660004EF60C51CEF200010A684FF6FF031A4015
:1006700060F30A2242F0806040F0FD70086070472D
:10068000002804BF012070472DE9F04381B042F2F9
:100690000008C4F202080446D8F800000D4600F035
:1006A000070088420CD2D8F8000020F00700284349
:1006B000C8F80000D8F8000000F00700A8426CD18C
:1006C000206841F204098107C4F2020917D54107E5
:1006D00005D5D9F8001041F4E061C9F80010010710
:1006E00005D5D9F8001041F46051C9F80010D9F8C7
:1006F0000010A26821F0F0011143C9F80010C007F2
:1007000042D1D8F8000000F00700A8420CD9D8F870
:10071000000020F007002843C8F80000D8F80000C7
:1007200000F00700A84238D12068410707D5D9F862
:100730000010E26821F4E0611143C9F800100007DD
:1007400008D5D9F80000216920F4605040EAC100C2
:10075000C9F80000D9F8002002F00C00082841F286
:100760000020C0F27A004DD141F62A13C2F3834132
:10077000C0F60003595CD20338D440F60010C0F232
:100780003D0048433EE000BF606859F8041C022861
:1007900008D0012826D1890306D4012001B0BDE884
:1007A000F08300BF8901F8D5D9F8001021F00301CA
:1007B0000843C9F80000FFF7A7FE064641F2883754
:1007C000D9F80000616800F00C00B0EB810F98D000
:1007D000FFF79AFE801BB842F2D9032001B0BDE8B2
:1007E000F08300BF8907D8D5DEE700BFD9F8002025
:1007F00041F23833C2F34042C0F600039A5C4843EA
:10080000B0FBF2F0D9F8001041F22832C1F3031125
:10081000C0F60002515C40F2080220FA01F140F2F9
:100820000400C2F200000068C2F200021160FFF78B
:1008300093FE002001B0BDE8F0830000002804BF53
:10084000012070472DE9F04182B00446007841F262
:100850000006C007C4F202060CD0706800F00C005D
:10086000042840F081803068800303D56068002848
:1008700000F04681207880071BD5706810F00C0FBF
:1008800009D0706800F00C00082840F0878070687C
:10089000C00300F183803068800703D520690128F8
:1008A00040F02E813068616920F0F80040EAC10014
:1008B00030602078000713D4207840072CD4E569F5
:1008C000002D00F01881706800F00C00082840F03E
:1008D000A780012D40F00481012002B0BDE8F08125
:1008E000A069002800F084800020C4F24220012189
:1008F000C0F88014FFF708FE054600BF706A800745
:1009000000F1B280FFF700FE401B0228F6D9032059
:1009100002B0BDE8F08100BFF0695FEAC00808D40A
:10092000F06940F08050F061F06900F08050009074
:10093000009847F20007C4F200073868C00549D4A0
:10094000386840F480703860FFF7DEFD054600BF70
:100950003868C0053ED4FFF7D7FD401B6428F7D99F
:10096000032002B0BDE8F081706800F00C00082898
:1009700003D17068C0033FF576AF61683068002925
:1009800000F00C81B1F5A02F00F00081B1F5803F9F
:1009900040F01A8140F480301CE100BF206900283B
:1009A00040F20000C4F2422000F088800121016082
:1009B000FFF7AAFD054600BF306880073FF572AF1C
:1009C000FFF7A2FD401B0228F6D9032002B0BDE8C4
:1009D000F08100BFE168306A002900F09D800529A0
:1009E00000F09280012940F0AF8040F00100B1E0BA
:1009F0000020C4F242200021C0F88014FFF784FDDB
:100A0000054600BF706A80077FF556AFFFF77CFD93
:100A1000401B0228F6D9032002B0BDE8F08100BFD8
:100A20000027C4F2422700203866FFF76DFD022D33
:100A300005460DD13068800140F1DE80FFF764FD8E
:100A4000401B02284FF00300F4D902B0BDE8F0814A
:100A5000306880014FD5FFF757FD401B02284FF04B
:100A60000300F5D9F1E700BF40F20800C2F2000030
:100A7000006844F6D351C1F26201A0FB0101480AAB
:100A8000019000BF00BF0198411E002801913FF472
:100A900013AF00BF0198411E002801913FF40CAF35
:100AA00000BF0198411E002801913FF405AF00BF2F
:100AB0000198411E00280191E4D1FDE6002101606A
:100AC000FFF722FD054600BF306880077FF5F1AED5
:100AD000FFF71AFD401B02284FF00300F4D9B4E7DA
:100AE0007068216A00F480328A4209D1616A00F498
:100AF0007010884204D1002002B0BDE8F08100BF30
:100B0000012002B0BDE8F08140F004003062306A9C
:100B100040F001001EE000BF20F001003062306AAA
:100B200020F004003062FFF7EFFC054641F2883701
:100B3000306A800720D5FFF7E7FC401BB8424FF032
:100B40000300F5D981E700BF20F001003062306A70
:100B500020F004003062FFF7D7FC054641F28837E9
:100B6000306A800708D4FFF7CFFC401BB842F7D9A2
:100B7000032002B0BDE8F081B8F1000F3FF59FAE51
:100B8000F06920F08050F06199E600BF40F48020C9
:100B90003060306840F480301CE000BF20F48030CA
:100BA0003060306820F480203060FFF7ADFC0546EF
:100BB000306880037FF55EAEFFF7A6FC401B64281B
:100BC0004FF00300F4D940E720F480303060306803
:100BD00020F480203060FFF797FC054630688003E2
:100BE0003FF548AEFFF790FC401B6428F6D9032080
:100BF00002B0BDE8F08100BF206AB0F5803F05D1AA
:100C00007168A26821F40031114371607168626AF1
:100C100021F4741111430843706001203866FFF716
:100C200073FC0446306880013FF565AFFFF76CFC4C
:100C3000001B02284FF00300F4D906E7411E0020F4
:100C4000B0EB116F1CBF012070474EF21002CEF2C4
:100C5000000251604EF62351CEF20001F0230B70DA
:100C60000721906011607047FEE70000F0B585B085
:100C7000002641F21800CDE90366CDE90166C4F211
:100C80000200016840F6004441F010010160016873
:100C9000C4F2010401F010010091009901680022E2
:100CA00041F02001016001684FF4407701F020011C
:100CB00000910099016841F008010160016801F0AC
:100CC000080100910099016841F004010160006889
:100CD0004FF4407100F00400009000982046FFF7A8
:100CE0000DFC4FF4804001900020C1F2210001ADC5
:100CF000CDE9020620462946FFF7F2FA1120CDE998
:100D0000020602200490204629460197FFF7E8FAE0
:100D1000282001210022FFF777FC2820FFF762FC42
:100D200005B0F0BDFEE70000FEE7000070B540F63C
:100D300000440025C4F2010445F0B000C0B200F048
:100D400029FA102000F026FA0020002600F022FAEE
:100D500020464FF400710122FFF7D0FB20464FF4EC
:100D600080710122FFF7CAFB20464FF40071002278
:100D7000FFF7C4FB20464FF480710022FFF7BEFB53
:100D8000782000F023F8402000F020F8002000F048
:100D90001DF820464FF400710022FFF7AFFB2046FC
:100DA0004FF480710122FFF7A9FB20464FF4007138
:100DB0000122FFF7A3FB701C46B2B6F1FF3FC7DC70
:100DC000E8B20135072828BF70BDB5E7B0B540F6D9
:100DD0000044C4F201040546C20920464FF40071E4
:100DE000FFF78CFB20464FF480710122FFF786FB52
:100DF00020464FF480710022FFF780FBC5F380127C
:100E000020464FF40071FFF779FB20464FF48071C4
:100E10000122FFF773FB20464FF480710022FFF799
:100E20006DFBC5F3401220464FF40071FFF766FBDF
:100E300020464FF480710122FFF760FB20464FF4FB
:100E400080710022FFF75AFBC5F3001220464FF4D1
:100E50000071FFF753FB20464FF480710122FFF72A
:100E60004DFB20464FF480710022FFF747FBC5F38E
:100E7000C00220464FF40071FFF740FB20464FF4BC
:100E800080710122FFF73AFB20464FF48071002267
:100E9000FFF734FBC5F3800220464FF40071FFF7E3
:100EA0002DFB20464FF480710122FFF727FB2046DF
:100EB0004FF480710022FFF721FBC5F3400220466A
:100EC0004FF40071FFF71AFB20464FF480710122A6
:100ED000FFF714FB20464FF480710022FFF70EFB52
:100EE00005F0010220464FF40071FFF707FB204692
:100EF0004FF480710122FFF701FB20464FF480710F
:100F00000022FFF7FBFA20464FF480710122FFF721
:100F1000F5FA20464FF480710022BDE8B040FFF79B
:100F2000EDBA000010B540F60044C4F201042046BA
:100F30004FF480710122FFF7E1FA20464FF400716F
:100F40000122FFF7DBFAAE2000F024F9D52000F0F3
:100F500021F9802000F01EF9A82000F01BF93F20A5
:100F600000F018F9D32000F015F9002000F012F974
:100F7000402000F00FF9A12000F00CF9C82000F08B
:100F800009F9DA2000F006F9122000F003F98120B7
:100F900000F000F9CF2000F0FDF8D92000F0FAF8B9
:100FA000F12000F0F7F8DB2000F0F4F8302000F03A
:100FB000F1F8A42000F0EEF8A62000F0EBF88D2068
:100FC00000F0E8F8142000F0E5F8AF2000F0E2F8B7
:100FD000BDE81040FFF7AABE2DE9F04780467E200D
:100FE00000EB480017466FF0070240F0B00002EB3C
:100FF000C104C0B2E5B200F0CDF8280900F1100933
:10100000484600F0C7F804F0080A504600F0C2F85D
:1010100041F23A30C0F6000000EB07114FF60060D5
:10102000CFF6FF70085CA1F5007600F0EFF870785D
:10103000B778F478357900F0E9F8384600F0E6F84A
:10104000204600F0E3F8284600F0E0F8707900F060
:10105000DDF8B07900F0DAF8F07900F0D7F84FF069
:10106000FF3000EB480040F0B000C0B200F092F852
:10107000484600F08FF8504600F08CF8307A00F0C7
:10108000C5F8707A00F0C2F8B07A00F0BFF8F07AD4
:1010900000F0BCF8307B00F0B9F8707B00F0B6F8D7
:1010A000B07B00F0B3F8F07BBDE8F04700F0AEB8DD
:1010B000002B08BF70472DE9F04F81B0A3F1010B61
:1010C0001C4691468A460746981E002642F2107832
:1010D0005D4600901CE000BF0120B9FBF0F04CF62B
:1010E000CD41CCF6CC41A0FB0112D20802EB82022A
:1010F000A0EB420006EB0A0140F03000C2B2C9B2D8
:101100003846FFF769FF0136A642A5F1010527D051
:101110005E45E1D00098801B032801D2012007E042
:1011200025F00301012000BF043900FB08F0FBD1CA
:10113000F143214411F00301CFD0012904D100EB88
:1011400080004000C9E700BF4FF47A724243022991
:101150004FF0640108BF00FB01F21046BDE700BF7D
:1011600001B0BDE8F04F7047F0B581B01446127879
:101170006AB10D46064600277819C1B2D2B2304690
:10118000FFF72AFF0137F8B2225C002AF4D101B040
:10119000F0BD0000B0B540F60044C4F201040546BD
:1011A00020464FF400710122FFF7A8F920464FF4C2
:1011B00080710122FFF7A2F920464FF4007100224E
:1011C000FFF79CF920464FF480710022FFF796F953
:1011D0007820FFF7FBFD0020FFF7F8FD2846FFF71A
:1011E000F5FD20464FF400710022FFF787F92046F5
:1011F0004FF480710122FFF781F920464FF400710E
:101200000122BDE8B040FFF779B90000B0B540F663
:101210000044C4F20104054620464FF40071012247
:10122000FFF76CF920464FF480710122FFF766F951
:1012300020464FF400710022FFF760F920464FF47A
:1012400080710022FFF75AF97820FFF7BFFD402098
:10125000FFF7BCFD2846FFF7B9FD20464FF40071AB
:101260000022FFF74BF920464FF480710122FFF76F
:1012700045F920464FF400710122BDE8B040FFF768
:101280003DB900007047000070470000FFF742B909
:1012900070470000FEE7000090B0FFF749F9002416
:1012A0000120CDE90B44CDE9094406900A904FF4A2
:1012B000E0104FF4803102250F9006A8CDE9071405
:1012C000CDE90D51FFF7BAFA20B1EFF3108072B6F5
:1012D000FEE700BF0F20CDE901054FF48060CDE9A6
:1012E000040401A802210394FFF7CAF920B1EFF327
:1012F000108072B6FEE700BFFFF7B8FCFFF712FEE2
:1013000007A201200121FFF72FFF00BFFEF7B2FF68
:101310000246022007210523FFF7CAFEF6E700BFB9
:10132000636F756E743A000000000000000000005A
:101330000102030406070809010200000000000082
:1013400000000000000000000000000000F80000A5
:101350000000000000333000000000100C06100CEC
:101360000600000000000000000040C07840C07887
:101370004000043F04043F040400007088FC08306F
:101380000000001820FF211E0000F008F000E01807
:10139000000000211C031E211E0000F008887000C0
:1013A00000001E2123241927211010160E00000012
:1013B00000000000000000000000000000E0180431
:1013C0000200000000071820400000020418E0009E
:1013D00000000040201807000000404080F08040DE
:1013E00040000202010F01020200000000F00000B4
:1013F00000000101011F01010100000000000000C8
:10140000000080B07000000000000000000000003C
:1014100000000001010101010101000000000000C5
:10142000000000303000000000000000000080607C
:101430001804006018060100000000E01008081001
:10144000E000000F102020100F00001010F8000026
:1014500000000020203F20200000007008080888BD
:10146000700000302824222130000030088888488D
:1014700030000018202020110E000000C02010F8BD
:10148000000000070424243F240000F8088888088E
:1014900008000019212020110E0000E01088881893
:1014A0000000000F112020110E0000380808C83875
:1014B00008000000003F0000000000708808088855
:1014C0007000001C222121221C0000E010080810DE
:1014D000E0000000312222110F00000000C0C00017
:1014E000000000000030300000000000008000001C
:1014F000000000008060000000000000804020101C
:101500000800000102040810200040404040404014
:101510004000040404040404040000081020408077
:1015200000000020100804020100007048080808AC
:10153000F0000000003036010000C030C828E8107C
:10154000E0000718272423140B000000C038E00037
:101550000000203C23020227382008F88888887081
:101560000000203F202020110E00C030080808088D
:101570003800071820202010080008F80808081074
:10158000E000203F202020100F0008F88888E8089D
:101590001000203F20202320180008F88888E80841
:1015A0001000203F200003000000C0300808083869
:1015B000000007182020221E020008F8080000087A
:1015C000F808203F210101213F20000808F8080801
:1015D00000000020203F2020000000000808F8083C
:1015E0000800C08080807F00000008F888C02818AC
:1015F0000800203F20012638200008F808000000DD
:101600000000203F20202020300008F8F800F8F8E3
:101610000800203F003F003F200008F830C00008CD
:10162000F808203F200007183F00E01008080810C5
:10163000E0000F10202020100F0008F8080808080C
:10164000F000203F210101010000E010080808100F
:10165000E0000F18242438504F0008F88888888844
:101660007000203F2000030C30200070880808081C
:1016700038000038202121221C00180808F808082A
:1016800018000000203F2000000008F808000008B3
:10169000F808001F202020201F000878880000C8BC
:1016A0003808000007380E010000F80800F80008AC
:1016B000F800033C0700073C0300081868808068B6
:1016C000180820302C03032C30200838C800C838F4
:1016D00008000000203F2000000010080808C8385B
:1016E00008002038262120201800000000FE0202F9
:1016F00002000000007F40404000000C30C00000AD
:101700000000000000010638C00000020202FE00D6
:101710000000004040407F00000000000402020280
:1017200004000000000000000000000000000000B5
:1017300000008080808080808080000202040000A1
:101740000000000000000000000000008080808099
:1017500000000019242222223F2008F80080800087
:101760000000003F112020110E000000008080804A
:101770000000000E11202020110000000080808851
:10178000F800000E112020103F2000008080808093
:101790000000001F222222221300008080F088888F
:1017A00088180020203F20200000000080808080DA
:1017B0008000006B94949493600008F8008080800F
:1017C0000000203F210000203F200080989800006A
:1017D00000000020203F202000000000008098989A
:1017E000000000C08080807F000008F8000080803A
:1017F0008000203F24022D302000000808F800005F
:1018000000000020203F2020000080808080808019
:101810008000203F20003F20003F808000808080AB
:101820000000203F210000203F20000080808080B9
:101830000000001F202020201F00808000808000EA
:10184000000080FFA12020110E0000000080808099
:101850008000000E112020A0FF808080800080800A
:10186000800020203F212000010000008080808037
:1018700080000033242424241900008080E080802C
:1018800000000000001F2020000080800000008079
:101890008000001F202020103F20808080000080DA
:1018A000808000010E3008060100808000800080EA
:1018B00080800F300C030C300F000080800080808F
:1018C00080000020312E0E312000808080000080BA
:1018D000808080818E70180601000080808080806A
:1018E00080000021302C2221300000000000807C8C
:1018F000020200000000003F404000000000FF0026
:10190000000000000000FF0000000002027C8000D8
:1019100000000040403F00000000000601010202FC
:101920000404000000000000000002030405060794
:1019300008090A0B0C0D0E0F1010000060190008AA
:10194000000000201000000050010008701900087D
:101950001000002068060000700100080000000070
:1019600001000000100000000024F400000000004E
:04000005080000ED02
:00000001FF
